{"abi":[{"type":"function","name":"seal_approve","inputs":[{"name":"id","type":"bytes32","internalType":"bytes32"}],"outputs":[{"name":"","type":"bool","internalType":"bool"}],"stateMutability":"nonpayable"},{"type":"event","name":"PolicyChecked","inputs":[{"name":"id","type":"bytes32","indexed":true,"internalType":"bytes32"},{"name":"success","type":"bool","indexed":false,"internalType":"bool"}],"anonymous":false}],"bytecode":{"object":"0x608060405234801561000f575f80fd5b506103af8061001d5f395ff3fe608060405234801561000f575f80fd5b5060043610610029575f3560e01c80637027d6041461002d575b5f80fd5b610047600480360381019061004291906102b4565b61005d565b60405161005491906102f9565b60405180910390f35b5f80826040516020016100709190610332565b60405160208183030381529060405290505f7f313233000000000000000000000000000000000000000000000000000000000090505f815f600381106100b9576100b861034c565b5b1a60f81b7effffffffffffffffffffffffffffffffffffffffffffffffffffffffffffff1916835f815181106100f2576100f161034c565b5b602001015160f81c60f81b7effffffffffffffffffffffffffffffffffffffffffffffffffffffffffffff19161480156101a457508160016003811061013b5761013a61034c565b5b1a60f81b7effffffffffffffffffffffffffffffffffffffffffffffffffffffffffffff1916836001815181106101755761017461034c565b5b602001015160f81c60f81b7effffffffffffffffffffffffffffffffffffffffffffffffffffffffffffff1916145b80156102285750816002600381106101bf576101be61034c565b5b1a60f81b7effffffffffffffffffffffffffffffffffffffffffffffffffffffffffffff1916836002815181106101f9576101f861034c565b5b602001015160f81c60f81b7effffffffffffffffffffffffffffffffffffffffffffffffffffffffffffff1916145b15610236576001905061023a565b5f90505b847fb9992dabb4ff8562e1094f70e1dd57647c185768c0f1c8d791948bb9d7a4724e8260405161026a91906102f9565b60405180910390a2809350505050919050565b5f80fd5b5f819050919050565b61029381610281565b811461029d575f80fd5b50565b5f813590506102ae8161028a565b92915050565b5f602082840312156102c9576102c861027d565b5b5f6102d6848285016102a0565b91505092915050565b5f8115159050919050565b6102f3816102df565b82525050565b5f60208201905061030c5f8301846102ea565b92915050565b5f819050919050565b61032c61032782610281565b610312565b82525050565b5f61033d828461031b565b60208201915081905092915050565b7f4e487b71000000000000000000000000000000000000000000000000000000005f52603260045260245ffdfea264697066735822122028c5c91484364761234fc356129c2bb9f991bc5293c4da63c3626e9a7fb3ae1b64736f6c63430008140033","linkReferences":{}},"methodIdentifiers":{"seal_approve(bytes32)":"7027d604"},"id":25}