{"abi":[{"type":"constructor","inputs":[],"stateMutability":"nonpayable"},{"type":"function","name":"isWhitelisted","inputs":[{"name":"policyId","type":"bytes32","internalType":"bytes32"}],"outputs":[{"name":"","type":"bool","internalType":"bool"}],"stateMutability":"view"},{"type":"function","name":"owner","inputs":[],"outputs":[{"name":"","type":"address","internalType":"address"}],"stateMutability":"view"},{"type":"function","name":"removePolicy","inputs":[{"name":"policyId","type":"bytes32","internalType":"bytes32"}],"outputs":[],"stateMutability":"nonpayable"},{"type":"function","name":"renounceOwnership","inputs":[],"outputs":[],"stateMutability":"nonpayable"},{"type":"function","name":"seal_approve","inputs":[{"name":"id","type":"bytes32","internalType":"bytes32"}],"outputs":[{"name":"","type":"bool","internalType":"bool"}],"stateMutability":"nonpayable"},{"type":"function","name":"transferOwnership","inputs":[{"name":"newOwner","type":"address","internalType":"address"}],"outputs":[],"stateMutability":"nonpayable"},{"type":"function","name":"whitelistPolicy","inputs":[{"name":"policyId","type":"bytes32","internalType":"bytes32"}],"outputs":[],"stateMutability":"nonpayable"},{"type":"function","name":"whitelistedPolicies","inputs":[{"name":"","type":"bytes32","internalType":"bytes32"}],"outputs":[{"name":"","type":"bool","internalType":"bool"}],"stateMutability":"view"},{"type":"event","name":"OwnershipTransferred","inputs":[{"name":"previousOwner","type":"address","indexed":true,"internalType":"address"},{"name":"newOwner","type":"address","indexed":true,"internalType":"address"}],"anonymous":false},{"type":"event","name":"PolicyChecked","inputs":[{"name":"id","type":"bytes32","indexed":true,"internalType":"bytes32"},{"name":"success","type":"bool","indexed":false,"internalType":"bool"}],"anonymous":false},{"type":"event","name":"PolicyRemoved","inputs":[{"name":"policyId","type":"bytes32","indexed":true,"internalType":"bytes32"}],"anonymous":false},{"type":"event","name":"PolicyWhitelisted","inputs":[{"name":"policyId","type":"bytes32","indexed":true,"internalType":"bytes32"}],"anonymous":false},{"type":"error","name":"OwnableInvalidOwner","inputs":[{"name":"owner","type":"address","internalType":"address"}]},{"type":"error","name":"OwnableUnauthorizedAccount","inputs":[{"name":"account","type":"address","internalType":"address"}]}],"bytecode":{"object":"0x608060405234801561000f575f80fd5b50335f73ffffffffffffffffffffffffffffffffffffffff168173ffffffffffffffffffffffffffffffffffffffff1603610081575f6040517f1e4fbdf70000000000000000000000000000000000000000000000000000000081526004016100789190610196565b60405180910390fd5b6100908161009660201b60201c565b506101af565b5f805f9054906101000a900473ffffffffffffffffffffffffffffffffffffffff169050815f806101000a81548173ffffffffffffffffffffffffffffffffffffffff021916908373ffffffffffffffffffffffffffffffffffffffff1602179055508173ffffffffffffffffffffffffffffffffffffffff168173ffffffffffffffffffffffffffffffffffffffff167f8be0079c531659141344cd1fd0a4f28419497f9722a3daafe3b4186f6b6457e060405160405180910390a35050565b5f73ffffffffffffffffffffffffffffffffffffffff82169050919050565b5f61018082610157565b9050919050565b61019081610176565b82525050565b5f6020820190506101a95f830184610187565b92915050565b610681806101bc5f395ff3fe608060405234801561000f575f80fd5b5060043610610086575f3560e01c8063715018a611610059578063715018a6146101225780638da5cb5b1461012c578063e8b223fd1461014a578063f2fde38b1461017a57610086565b806301a5e3fe1461008a5780631ea9b3aa146100ba5780636f396179146100d65780637027d604146100f2575b5f80fd5b6100a4600480360381019061009f9190610540565b610196565b6040516100b19190610585565b60405180910390f35b6100d460048036038101906100cf9190610540565b6101bc565b005b6100f060048036038101906100eb9190610540565b61021c565b005b61010c60048036038101906101079190610540565b61027c565b6040516101199190610585565b60405180910390f35b61012a6102df565b005b6101346102f2565b60405161014191906105dd565b60405180910390f35b610164600480360381019061015f9190610540565b610319565b6040516101719190610585565b60405180910390f35b610194600480360381019061018f9190610620565b610336565b005b5f60015f8381526020019081526020015f205f9054906101000a900460ff169050919050565b6101c46103ba565b6001805f8381526020019081526020015f205f6101000a81548160ff021916908315150217905550807f40b9b1bfe39f5b3c9fb09f339994f3be9364c825c84165c6aa9e3dda217ff03260405160405180910390a250565b6102246103ba565b5f60015f8381526020019081526020015f205f6101000a81548160ff021916908315150217905550807f0d36023cc2fbcad52ac4d396c3bdc45f6ea3b176efdee221dc1c7391e8b3fc8c60405160405180910390a250565b5f8060015f8481526020019081526020015f205f9054906101000a900460ff169050827fb9992dabb4ff8562e1094f70e1dd57647c185768c0f1c8d791948bb9d7a4724e826040516102ce9190610585565b60405180910390a280915050919050565b6102e76103ba565b6102f05f610441565b565b5f805f9054906101000a900473ffffffffffffffffffffffffffffffffffffffff16905090565b6001602052805f5260405f205f915054906101000a900460ff1681565b61033e6103ba565b5f73ffffffffffffffffffffffffffffffffffffffff168173ffffffffffffffffffffffffffffffffffffffff16036103ae575f6040517f1e4fbdf70000000000000000000000000000000000000000000000000000000081526004016103a591906105dd565b60405180910390fd5b6103b781610441565b50565b6103c2610502565b73ffffffffffffffffffffffffffffffffffffffff166103e06102f2565b73ffffffffffffffffffffffffffffffffffffffff161461043f57610403610502565b6040517f118cdaa700000000000000000000000000000000000000000000000000000000815260040161043691906105dd565b60405180910390fd5b565b5f805f9054906101000a900473ffffffffffffffffffffffffffffffffffffffff169050815f806101000a81548173ffffffffffffffffffffffffffffffffffffffff021916908373ffffffffffffffffffffffffffffffffffffffff1602179055508173ffffffffffffffffffffffffffffffffffffffff168173ffffffffffffffffffffffffffffffffffffffff167f8be0079c531659141344cd1fd0a4f28419497f9722a3daafe3b4186f6b6457e060405160405180910390a35050565b5f33905090565b5f80fd5b5f819050919050565b61051f8161050d565b8114610529575f80fd5b50565b5f8135905061053a81610516565b92915050565b5f6020828403121561055557610554610509565b5b5f6105628482850161052c565b91505092915050565b5f8115159050919050565b61057f8161056b565b82525050565b5f6020820190506105985f830184610576565b92915050565b5f73ffffffffffffffffffffffffffffffffffffffff82169050919050565b5f6105c78261059e565b9050919050565b6105d7816105bd565b82525050565b5f6020820190506105f05f8301846105ce565b92915050565b6105ff816105bd565b8114610609575f80fd5b50565b5f8135905061061a816105f6565b92915050565b5f6020828403121561063557610634610509565b5b5f6106428482850161060c565b9150509291505056fea2646970667358221220657c910436696d6d5df6b81c545f3295cd01849f4329e77dcb40a909fac82b5d64736f6c63430008140033","linkReferences":{}},"methodIdentifiers":{"isWhitelisted(bytes32)":"01a5e3fe","owner()":"8da5cb5b","removePolicy(bytes32)":"6f396179","renounceOwnership()":"715018a6","seal_approve(bytes32)":"7027d604","transferOwnership(address)":"f2fde38b","whitelistPolicy(bytes32)":"1ea9b3aa","whitelistedPolicies(bytes32)":"e8b223fd"},"id":26}