{"abi":[{"type":"function","name":"addAddress","inputs":[{"name":"whitelistId","type":"bytes16","internalType":"bytes16"},{"name":"addr","type":"address","internalType":"address"}],"outputs":[],"stateMutability":"nonpayable"},{"type":"function","name":"createWhitelist","inputs":[{"name":"whitelistId","type":"bytes16","internalType":"bytes16"}],"outputs":[],"stateMutability":"nonpayable"},{"type":"function","name":"getWhitelistAddressCount","inputs":[{"name":"whitelistId","type":"bytes16","internalType":"bytes16"}],"outputs":[{"name":"","type":"uint256","internalType":"uint256"}],"stateMutability":"view"},{"type":"function","name":"getWhitelistOwner","inputs":[{"name":"whitelistId","type":"bytes16","internalType":"bytes16"}],"outputs":[{"name":"","type":"address","internalType":"address"}],"stateMutability":"view"},{"type":"function","name":"isAddressInWhitelist","inputs":[{"name":"whitelistId","type":"bytes16","internalType":"bytes16"},{"name":"addr","type":"address","internalType":"address"}],"outputs":[{"name":"","type":"bool","internalType":"bool"}],"stateMutability":"view"},{"type":"function","name":"removeAddress","inputs":[{"name":"whitelistId","type":"bytes16","internalType":"bytes16"},{"name":"addr","type":"address","internalType":"address"}],"outputs":[],"stateMutability":"nonpayable"},{"type":"function","name":"seal_approve","inputs":[{"name":"fullId","type":"bytes32","internalType":"bytes32"}],"outputs":[{"name":"","type":"bool","internalType":"bool"}],"stateMutability":"nonpayable"},{"type":"function","name":"whitelists","inputs":[{"name":"","type":"bytes16","internalType":"bytes16"}],"outputs":[{"name":"owner","type":"address","internalType":"address"},{"name":"addressCount","type":"uint256","internalType":"uint256"}],"stateMutability":"view"},{"type":"event","name":"AddressAdded","inputs":[{"name":"whitelistId","type":"bytes16","indexed":true,"internalType":"bytes16"},{"name":"addr","type":"address","indexed":true,"internalType":"address"}],"anonymous":false},{"type":"event","name":"AddressRemoved","inputs":[{"name":"whitelistId","type":"bytes16","indexed":true,"internalType":"bytes16"},{"name":"addr","type":"address","indexed":true,"internalType":"address"}],"anonymous":false},{"type":"event","name":"WhitelistChecked","inputs":[{"name":"whitelistId","type":"bytes16","indexed":true,"internalType":"bytes16"},{"name":"addr","type":"address","indexed":true,"internalType":"address"},{"name":"success","type":"bool","indexed":false,"internalType":"bool"}],"anonymous":false},{"type":"event","name":"WhitelistCreated","inputs":[{"name":"whitelistId","type":"bytes16","indexed":true,"internalType":"bytes16"},{"name":"owner","type":"address","indexed":true,"internalType":"address"}],"anonymous":false}],"bytecode":{"object":"0x608060405234801561000f575f80fd5b50610fe58061001d5f395ff3fe608060405234801561000f575f80fd5b5060043610610086575f3560e01c8063b566fd0d11610059578063b566fd0d14610122578063e0d1e67414610152578063e1ff859e14610183578063f5ca1523146101b357610086565b8063514217841461008a5780637027d604146100ba5780638734c221146100ea578063a1b321ef14610106575b5f80fd5b6100a4600480360381019061009f9190610b90565b6101cf565b6040516100b19190610bd3565b60405180910390f35b6100d460048036038101906100cf9190610c1f565b610211565b6040516100e19190610c64565b60405180910390f35b61010460048036038101906100ff9190610b90565b610306565b005b610120600480360381019061011b9190610cd7565b61049b565b005b61013c60048036038101906101379190610b90565b610756565b6040516101499190610d24565b60405180910390f35b61016c60048036038101906101679190610b90565b6107b6565b60405161017a929190610d3d565b60405180910390f35b61019d60048036038101906101989190610cd7565b6107f4565b6040516101aa9190610c64565b60405180910390f35b6101cd60048036038101906101c89190610cd7565b61087e565b005b5f805f836fffffffffffffffffffffffffffffffff19166fffffffffffffffffffffffffffffffff191681526020019081526020015f20600201549050919050565b5f808290505f805f836fffffffffffffffffffffffffffffffff19166fffffffffffffffffffffffffffffffff191681526020019081526020015f206001015f3373ffffffffffffffffffffffffffffffffffffffff1673ffffffffffffffffffffffffffffffffffffffff1681526020019081526020015f205f9054906101000a900460ff1690503373ffffffffffffffffffffffffffffffffffffffff16826fffffffffffffffffffffffffffffffff19167f9531b07d135c68200eb3bb8fbc4147fbc581805e46709d58cf972e54303b7efd836040516102f49190610c64565b60405180910390a38092505050919050565b5f73ffffffffffffffffffffffffffffffffffffffff165f80836fffffffffffffffffffffffffffffffff19166fffffffffffffffffffffffffffffffff191681526020019081526020015f205f015f9054906101000a900473ffffffffffffffffffffffffffffffffffffffff1673ffffffffffffffffffffffffffffffffffffffff16146103cb576040517f08c379a00000000000000000000000000000000000000000000000000000000081526004016103c290610dbe565b60405180910390fd5b335f80836fffffffffffffffffffffffffffffffff19166fffffffffffffffffffffffffffffffff191681526020019081526020015f205f015f6101000a81548173ffffffffffffffffffffffffffffffffffffffff021916908373ffffffffffffffffffffffffffffffffffffffff1602179055503373ffffffffffffffffffffffffffffffffffffffff16816fffffffffffffffffffffffffffffffff19167ff66d43736f1363ade60af2d09e376f2e0d80c4e80d0e1e6118a3cefa86da19d660405160405180910390a350565b3373ffffffffffffffffffffffffffffffffffffffff165f80846fffffffffffffffffffffffffffffffff19166fffffffffffffffffffffffffffffffff191681526020019081526020015f205f015f9054906101000a900473ffffffffffffffffffffffffffffffffffffffff1673ffffffffffffffffffffffffffffffffffffffff1614610560576040517f08c379a000000000000000000000000000000000000000000000000000000000815260040161055790610e26565b60405180910390fd5b5f80836fffffffffffffffffffffffffffffffff19166fffffffffffffffffffffffffffffffff191681526020019081526020015f206001015f8273ffffffffffffffffffffffffffffffffffffffff1673ffffffffffffffffffffffffffffffffffffffff1681526020019081526020015f205f9054906101000a900460ff1615610621576040517f08c379a000000000000000000000000000000000000000000000000000000000815260040161061890610e8e565b60405180910390fd5b60015f80846fffffffffffffffffffffffffffffffff19166fffffffffffffffffffffffffffffffff191681526020019081526020015f206001015f8373ffffffffffffffffffffffffffffffffffffffff1673ffffffffffffffffffffffffffffffffffffffff1681526020019081526020015f205f6101000a81548160ff0219169083151502179055505f80836fffffffffffffffffffffffffffffffff19166fffffffffffffffffffffffffffffffff191681526020019081526020015f206002015f8154809291906106f690610ed9565b91905055508073ffffffffffffffffffffffffffffffffffffffff16826fffffffffffffffffffffffffffffffff19167f3fcb7ac22e62772eaf79f6141352298e0ce8b5d3ded413bd4430f8348fd6796760405160405180910390a35050565b5f805f836fffffffffffffffffffffffffffffffff19166fffffffffffffffffffffffffffffffff191681526020019081526020015f205f015f9054906101000a900473ffffffffffffffffffffffffffffffffffffffff169050919050565b5f602052805f5260405f205f91509050805f015f9054906101000a900473ffffffffffffffffffffffffffffffffffffffff16908060020154905082565b5f805f846fffffffffffffffffffffffffffffffff19166fffffffffffffffffffffffffffffffff191681526020019081526020015f206001015f8373ffffffffffffffffffffffffffffffffffffffff1673ffffffffffffffffffffffffffffffffffffffff1681526020019081526020015f205f9054906101000a900460ff16905092915050565b3373ffffffffffffffffffffffffffffffffffffffff165f80846fffffffffffffffffffffffffffffffff19166fffffffffffffffffffffffffffffffff191681526020019081526020015f205f015f9054906101000a900473ffffffffffffffffffffffffffffffffffffffff1673ffffffffffffffffffffffffffffffffffffffff1614610943576040517f08c379a000000000000000000000000000000000000000000000000000000000815260040161093a90610e26565b60405180910390fd5b5f80836fffffffffffffffffffffffffffffffff19166fffffffffffffffffffffffffffffffff191681526020019081526020015f206001015f8273ffffffffffffffffffffffffffffffffffffffff1673ffffffffffffffffffffffffffffffffffffffff1681526020019081526020015f205f9054906101000a900460ff16610a03576040517f08c379a00000000000000000000000000000000000000000000000000000000081526004016109fa90610f6a565b60405180910390fd5b5f805f846fffffffffffffffffffffffffffffffff19166fffffffffffffffffffffffffffffffff191681526020019081526020015f206001015f8373ffffffffffffffffffffffffffffffffffffffff1673ffffffffffffffffffffffffffffffffffffffff1681526020019081526020015f205f6101000a81548160ff0219169083151502179055505f80836fffffffffffffffffffffffffffffffff19166fffffffffffffffffffffffffffffffff191681526020019081526020015f206002015f815480929190610ad790610f88565b91905055508073ffffffffffffffffffffffffffffffffffffffff16826fffffffffffffffffffffffffffffffff19167f88fa9ad37694d2dde508457e07b8395d2304ffaf0fdb4bcfbe984cf3a6a7c54f60405160405180910390a35050565b5f80fd5b5f7fffffffffffffffffffffffffffffffff0000000000000000000000000000000082169050919050565b610b6f81610b3b565b8114610b79575f80fd5b50565b5f81359050610b8a81610b66565b92915050565b5f60208284031215610ba557610ba4610b37565b5b5f610bb284828501610b7c565b91505092915050565b5f819050919050565b610bcd81610bbb565b82525050565b5f602082019050610be65f830184610bc4565b92915050565b5f819050919050565b610bfe81610bec565b8114610c08575f80fd5b50565b5f81359050610c1981610bf5565b92915050565b5f60208284031215610c3457610c33610b37565b5b5f610c4184828501610c0b565b91505092915050565b5f8115159050919050565b610c5e81610c4a565b82525050565b5f602082019050610c775f830184610c55565b92915050565b5f73ffffffffffffffffffffffffffffffffffffffff82169050919050565b5f610ca682610c7d565b9050919050565b610cb681610c9c565b8114610cc0575f80fd5b50565b5f81359050610cd181610cad565b92915050565b5f8060408385031215610ced57610cec610b37565b5b5f610cfa85828601610b7c565b9250506020610d0b85828601610cc3565b9150509250929050565b610d1e81610c9c565b82525050565b5f602082019050610d375f830184610d15565b92915050565b5f604082019050610d505f830185610d15565b610d5d6020830184610bc4565b9392505050565b5f82825260208201905092915050565b7f57686974656c69737420616c72656164792065786973747300000000000000005f82015250565b5f610da8601883610d64565b9150610db382610d74565b602082019050919050565b5f6020820190508181035f830152610dd581610d9c565b9050919050565b7f4e6f742077686974656c697374206f776e6572000000000000000000000000005f82015250565b5f610e10601383610d64565b9150610e1b82610ddc565b602082019050919050565b5f6020820190508181035f830152610e3d81610e04565b9050919050565b7f4164647265737320616c726561647920696e2077686974656c697374000000005f82015250565b5f610e78601c83610d64565b9150610e8382610e44565b602082019050919050565b5f6020820190508181035f830152610ea581610e6c565b9050919050565b7f4e487b71000000000000000000000000000000000000000000000000000000005f52601160045260245ffd5b5f610ee382610bbb565b91507fffffffffffffffffffffffffffffffffffffffffffffffffffffffffffffffff8203610f1557610f14610eac565b5b600182019050919050565b7f41646472657373206e6f7420696e2077686974656c69737400000000000000005f82015250565b5f610f54601883610d64565b9150610f5f82610f20565b602082019050919050565b5f6020820190508181035f830152610f8181610f48565b9050919050565b5f610f9282610bbb565b91505f8203610fa457610fa3610eac565b5b60018203905091905056fea264697066735822122023f3dd031e7ee4da5b0a4f6e7afd308501d80696621dfcc1b3e1e494f8c08e0964736f6c63430008140033","linkReferences":{}},"methodIdentifiers":{"addAddress(bytes16,address)":"a1b321ef","createWhitelist(bytes16)":"8734c221","getWhitelistAddressCount(bytes16)":"51421784","getWhitelistOwner(bytes16)":"b566fd0d","isAddressInWhitelist(bytes16,address)":"e1ff859e","removeAddress(bytes16,address)":"f5ca1523","seal_approve(bytes32)":"7027d604","whitelists(bytes16)":"e0d1e674"},"id":18}